:10000000E00C0020E5050000090D0000B905000026
:10001000B9050000B9050000B9050000B9050000E8
:10002000000000000000000000000000C502000009
:10003000B905000000000000B9050000B905000086
:100040002103000021030000210300002103000020
:100050002103000021030000210300002103000010
:100060002103000021030000210300002103000000
:1000700021030000210300002103000021030000F0
:1000800021030000210300002103000021030000E0
:1000900021030000210300002103000021030000D0
:1000A00021030000210300002103000021030000C0
:1000B00021030000210300002103000021030000B0
:1000C00021030000210300002103000021030000A0
:1000D0002103000021030000210300002103000090
:1000E0002103000021030000210300002103000080
:1000F0002103000021030000210300002103000070
:10010000210300002103000021030000210300005F
:10011000210300002103000021030000210300004F
:10012000210300002103000021030000210300003F
:10013000210300002103000021030000210300002F
:10014000210300002103000021030000210300001F
:100150002103000002234FF080500A4A03F180017E
:100160000133202B42F82100F8D100234FF08050BA
:10017000054A03F180010133102B42F82100F8D128
:1001800000207047002584500028845008B502499B
:10019000024800F091FD00BF70160850001608508C
:1001A00010B5094B094C00F01F024009012818BF87
:1001B000234603EB8203D3F8002222F0E04242EA16
:1001C0000172C3F8002210BD00288450002584501D
:1001D00070B54FF02003EFF3118683F31288BFF35D
:1001E0006F8F0124134B144DC3F8004502230321E4
:1001F000C5F8D0360020FFF7D3FF2046FFF7D0FF29
:100200002146C5F804472120C5F80449C5F8004B2C
:10021000FFF7C6FF2020FFF7C3FF0B20FFF7C0FF4B
:100220000A20FFF7BDFF86F31188BFF36F8F002010
:1002300070BD00BF001000500040005000F06ABACE
:10024000014800F033BC00BF041000000149102237
:100250000A60704710ED00E072B6404080F31188EC
:10026000BFF36F8FBFF34F8F30BF00BF00BF00BF22
:1002700000BF00BF00BF00BF00BF62B6BFF36F8FFB
:10028000704700BF30BFFFF7FDBF00BF0B4A08B586
:100290000B4B22F07F029A60BFF34F8FBFF36F8F3B
:1002A000D3F8882022F47002C3F8882000F050FBB5
:1002B00000F092FB00F08AF900F056FB000000000D
:1002C00000ED00E01EF0040F0CBFEFF30880EFF329
:1002D0000980816911F8021C0229FFD001B500F0E4
:1002E0000BFD01BD0446084611461A46002383F360
:1002F0000B880A4B2025A3F5806686F30B8883F3D1
:10030000098863B64FF0000383F31188BFF36F8F42
:10031000A04785F31188BFF36F8FFEE7E00C002044
:1003200001B5EFF30580A0F110004FEAC0000449C9
:10033000014409C99847BDE8014002490847000047
:10034000B40D000049030000704700BF154B9A6AC6
:1003500012F0007F9A6A14BF1E201D2012F0807FC9
:100360009A6A18BF1F2012F4801F9A6A18BF0220D1
:1003700012F4002F9A6A18BF212012F4802F9A6A73
:1003800018BF222012F4003F9A6A18BF232012F4EB
:10039000803F9A6A18BF24206FEA02426FEA124235
:1003A0009A62704700ED00E010B5184B0246986A5B
:1003B0009C6A10F4805F14BF1720162014F4006F9D
:1003C0009C6A18BF1820A40508D5986A000404D5B3
:1003D0001AB19A6A22F400429A6219200B4B9A6A67
:1003E00012F4806F9A6A18BF1A20D2050CD49B6A47
:1003F00013F4005F18BF1C20044A936A43F47F4340
:10040000936200230B7010BD1B20F5E700ED00E0A8
:1004100010B51C4B0246986A9C6A10F0100F14BF6E
:100420001120102014F0080F9C6A18BF1220A40796
:1004300009D5586B986A000604D51AB19A6A22F059
:1004400080029A6213200F4B9A6A12F0010F9A6A87
:1004500018BF142012F0200F9A6A18BF1520D40676
:1004600058BF9B6A074B9A6A920642BF5A6A22F4A7
:1004700000525A629A6A42F0FF029A6200230B709D
:1004800010BD00BF00ED00E070B5444B06465B6850
:1004900000258AB0C3F3080385F31188BFF36F8F7B
:1004A00002F07F40B0F17F4F11D102F00C0008281C
:1004B0000DD010074CBF0E4601250022033B8DF8DE
:1004C0000720032B05D8DFE803F01E5C60592E4699
:1004D000F3E700249DF807309BB92022314602A89B
:1004E00000F019FC099B002D53D0C3F3080222B978
:1004F0006FEA53236FEA43230993204602A900F0D1
:10050000F9FB0AB070BD254BDA6A9107E1D4DA6ACB
:10051000002ADEDBDA6A5200DBD55A69B16942F49F
:1005200080725A61BFF34F8FBFF36F8F5A6931F8F2
:10053000021C22F480725A61BFF34F8FBFF36F8F9A
:100540004DF60272914209D09A6AD2B242B10120AC
:100550000DF10701FFF75CFF0446BBE73468B9E71C
:100560009A6A12F47F4F05D001200DF10701FFF7C1
:100570001BFFF1E79B6AB3F5803FAAD3FFF7E6FEC6
:10058000EAE700200DF10701E4E700200DF1070183
:10059000EDE723F4FF7323F00103ADE700ED00E086
:1005A000044B5A6942F010025A615A6942F480625F
:1005B0005A61704700ED00E0EFF30880EFF3098126
:1005C00001B57246FFF760FF01BD00BF0023202187
:1005D0000348C2180133452B82F80013F9D1704744
:1005E00000E100E0002080F31488BFF36F8F00204B
:1005F00080F30A8880F30B88FFF720FE00200E4965
:100600000860BFF34F8F0D4880F3088800F03EF874
:10061000202080F311880A484FF40061401880F3CD
:100620000988EFF314800221084380F31488BFF394
:100630006F8FFFF72BFE000094ED00E0E00C002030
:10064000E0000020BFF34F8F0549064BCA6802F453
:10065000E0621343CB60BFF34F8F00BFFDE700BFE5
:1006600000ED00E00400FA05002318460649D1F821
:100670009020C2F30722934200DB7047C1F8983004
:10068000C1F8A0000133F6E700ED00E010B572B646
:10069000002484F31388FFF7E7FF23464FF0FF3071
:1006A0000C4A03F120010133102B42F82100F8D14C
:1006B00000234FF0FF30074A03F160010133102B94
:1006C00042F82100F8D162B6BFF34F8FBFF36F8FAE
:1006D00010BD00BF00E100E01022044B0020C3F871
:1006E00040244FF05023C3F81406704700300050E8
:1006F0004FF47F03D3F83021D3F83431072A05D1E2
:10070000023B032B02D8024AD05C7047002070479E
:10071000F110000008B5FFF7EBFF58B1644BD3F8B8
:10072000202A3AB90D21C3F8201A0121C3F81C1957
:10073000C3F81C290022D30003F57F03D3F800136C
:10074000013107D0D3F800130132D3F80433202A43
:100750000B60F0D1FFF7CCFF002840F0A080FFF73E
:10076000C7FF40B1534B544AC3F830254FF05023D4
:100770000122C3F858254FF47F03D3F83021D3F872
:100780003431072A09D1023B032B06D84B4AD35CEC
:100790001BB100224A4BC3F84C25FFF7A9FF50B10B
:1007A0004FF05023D3F80024D10742BF0022C3F8F2
:1007B0001421C3F818214FF47F03D3F83021D3F864
:1007C0003431072A09D14FF05023D3F80024D2073F
:1007D00044BF6FF00102C3F80024FFF789FF18B18E
:1007E0006522334BC3F80C274FF47F03D3F8302135
:1007F000D3F83431072A16D1314BD3F82034002BEB
:1008000011DA4FF050230322C3F8182501229A6011
:10081000D3F80421002AFBD00022C3F804210122CE
:10082000DA60C3F818254FF47F03D3F83021D3F8EA
:100830003431072A23D1023B032B02D8214AD35C4F
:10084000EBB17E221A4B1B49C3F80C27C3F83C2995
:100850007F231D4AC2F818310023C1F8043EC1F8B5
:10086000083E01F54821C1F81031C2F82431C2F820
:100870002C3102F5FF1202F58052C2F8A032134A61
:10088000D2F88C3043F44063C2F88C30104A114BDC
:100890001168C3F84415D269C3F84C2508BD292254
:1008A000034BC3F80C270322C3F83C2757E700BFCC
:1008B00000400050009003504400EFBEED100000D7
:1008C00000200350E91000000020005000ED00E07F
:1008D0000080FF0000600050104B70B553F82040BE
:1008E000013053F82060A64200D870BDD4E900352D
:1008F0008DB12846984738B10028B8BF4042FF283C
:10090000A8BFFF20EB681870EA68537843F0010332
:1009100053700834E7E79847FBE700BF0C1000006E
:10092000012208B5084B03201A70FFF7D5FF00F02D
:1009300029FA0420FFF7D0FFFFF728FC034A137BB6
:1009400023F00103137308BDDC00002060000020C9
:1009500008B50348034A0021121A00F00FFA08BD37
:1009600060000020E000002008B50020FFF7B4FF81
:10097000164B03F5006282F3088883F30A8800258A
:10098000E023134C84F82230E57725766576A5764A
:1009900084F82050636A43F4E023636284F82350B0
:1009A000FFF7FEFDFFF752FC4FF0FF33A362E36257
:1009B00000F0E9F90120FFF78FFF0220FFF78CFF1D
:1009C0002B462A4629460348FFF78CFCE00000200E
:1009D00000ED00E02109000008B50648064A074975
:1009E000121A00F0CDF9BDE80840054A054906484D
:1009F00000F0C6B90000002060000020F8100000E0
:100A000000000000F81000000000002010B50A4CA3
:100A100023681BB101232360002010BD00F04EF8B5
:100A20000028F7D00138072803D8044B53F82000DA
:100A300010BD034810BD00BFC400002024100000FA
:100A4000FE8FFFFFBFF34F8F0549064BCA6802F4C4
:100A5000E0621343CB60BFF34F8F00BFFDE700BFE1
:100A600000ED00E00400FA0530B44FF0FE3200253E
:100A70000B4B0C4C0C494968C3F80024C3F8042400
:100A8000C3F80824C3F80C24C3F81024C3F81424B2
:100A9000C3F81824C3F81C24C4F8005530BC084718
:100AA000005084500040845000000020024BD0E9E8
:100AB0000012C3E9001270470000002008B500F0E2
:100AC00011F830B900F010F838B9054AC2F80C0A2C
:100AD00008BD00F037F8032008BD042008BD00BFA2
:100AE000005084500020704710B5114800F048F8BD
:100AF00000B110BD0F4800F043F80028F9D10E4CAA
:100B0000204600F03DF80028F3D10C4B0C481C6047
:100B100000F036F801460028EBD100F02DF804462D
:100B200008B1204610BD00F03FF82046FAE700BFAC
:100B300018000020140000201000002008000020F1
:100B40000C00002008B5084800F024F8074800F021
:100B500021F8074800F01EF8064800F01BF8BDE831
:100B6000084000F00BB800BF18000020140000205F
:100B7000100000200C00002000207047704700BFCC
:100B800008B5034B02681B6810689847002008BD31
:100B90003000002008B5034B02685B681068984776
:100BA000002008BD3000002070B5094C094D2069B7
:100BB000AB68984718B1084B08485B689847002114
:100BC000074AEB6811602069BDE87040184700BF14
:100BD0001C00002030000020000000204410000015
:100BE000C800002010B5044650B1636813F0685F78
:100BF00005D0064A934202D000236260236010BDF4
:100C0000034B04485B689847EFE700BF2C5F5CA983
:100C10000000002064100000C8B143680D4A9342F0
:100C200013D013F0685F0ED0012350E8002F19464F
:100C300040E8001C9CF0000FF7D1012AF5D0BFF36B
:100C40005F8F0020704704487047044870476FF476
:100C5000E04070472C5F5CA9E98FFFFFEA8FFFFF40
:100C6000034680B1426809498A420AD012F0685F9F
:100C700005D0BFF35F8F002210461A60704704480A
:100C80007047044870476FF4E04070472C5F5CA9E0
:100C9000E98FFFFFEA8FFFFF10B5044620B1002364
:100CA000034A2360626010BD0248FFF7DDFEF6E7ED
:100CB0003A00003A8C10000072B6002340F8103B56
:100CC0008842FBD9BFF34F8F30BFFDE708B54FF027
:100CD0002002EFF3118382F31288BFF36F8FFFF7C7
:100CE000B1FCFFF7B9FAFCE77047002008B5FFF741
:100CF000EDFF704700F032B80146006800F02EB8F2
:100D000000210120FFF7F6BF08B5FFF7BBFABDE8E9
:100D10000840FFF719BB10B5431E0A44914200D1A9
:100D200010BD11F8014B03F8014FF7E70346C9B2B4
:100D30000244934200D1704703F8011BF9E70020F9
:100D400008B5FFF77FFCFFF761BE08B5FFF778FA3B
:100D5000FFF7CFFFBDE80840FFF758BE10B54FF0D2
:100D60002003EFF3118483F31288BFF36F8FFFF733
:100D7000E6FF84F31188BFF36F8F10BDFFF7D6BF76
:100D8000FFF7C9BF7047704770470000D1010000EE
:100D9000000000005501000000000000470D0000A9
:100DA000000000004B0D000000000000D90600000C
:100DB0000000000000000000010D00000000000025
:100DC000010D000000000000010D00000000000007
:100DD000010D000000000000010D000000000000F7
:100DE000010D000000000000010D000000000000E7
:100DF000010D000000000000010D000000000000D7
:100E0000010D000000000000010D000000000000C6
:100E1000010D000000000000010D000000000000B6
:100E2000010D000000000000010D000000000000A6
:100E3000010D000000000000010D00000000000096
:100E4000010D000000000000010D00000000000086
:100E5000010D000000000000010D00000000000076
:100E6000010D000000000000010D00000000000066
:100E7000010D000000000000010D00000000000056
:100E8000010D000000000000010D00000000000046
:100E9000010D000000000000010D00000000000036
:100EA000010D000000000000010D00000000000026
:100EB000010D000000000000010D00000000000016
:100EC000010D000000000000010D00000000000006
:100ED000010D000000000000010D000000000000F6
:100EE000010D000000000000010D000000000000E6
:100EF000010D000000000000010D000000000000D6
:100F0000010D000000000000010D000000000000C5
:100F1000010D000000000000010D000000000000B5
:100F2000010D000000000000010D000000000000A5
:100F3000010D000000000000010D00000000000095
:100F4000010D000000000000010D00000000000085
:100F5000010D000000000000010D00000000000075
:100F6000010D000000000000010D00000000000065
:100F7000010D000000000000010D00000000000055
:100F8000010D000000000000010D00000000000045
:100F9000010D000000000000010D00000000000035
:100FA000010D000000000000010D00000000000025
:100FB000010D000000000000010D00000000000015
:100FC000010D000000000000010D00000000000005
:100FD000010D000000000000010D0000AF10000036
:100FE00000000000DD10000000000000C410000040
:100FF00000000000F510000000000000C01000001C
:101000000000000000000000EB0C00008C0D000050
:101010008C0D0000A40D0000A40D0000B40D000014
:10102000B40D0000FF8FFFFFFF8FFFFFFE8FFFFF5C
:10103000FE8FFFFFFD8FFFFFFC8FFFFFFC8FFFFF89
:10104000FB8FFFFF436F756C64206E6F74206C6FB5
:10105000636B20706F7765722073617665206D75A4
:10106000746578006D757465785F66726565206378
:10107000616C6C65642077697468204E554C4C2017
:10108000706172616D6574657200000043616E2766
:101090007420696E697469616C697A65206D757414
:1010A00065782C20776173204E554C4C0D0A0063F7
:1010B000627072696E74665F7061636B6167650010
:1010C000736F63006E726635333430646B5F6E72BB
:1010D00066353334305F63707561707000666174BB
:1010E000616C5F6572726F720000000001010100A7
:1010F00000010000006F730000000000450A0000BE
:10110000100000202C0000202400002020000020DF
:101110001C00002058000020500000204800002043
:101120000000000040000020990C0000E50B0000CA
:10113000190C0000610C0000CC0000203A00003ABD
:10114000D00000203A00003AD40000203A00003AD3
:0C115000D80000203A00003A15E015E03D
:00000001FF
