:020000040100F9
:10000000D80F0021591500019D3B00012D1500015D
:100010002D1500012D1500012D1500010000000017
:10002000000000000000000000000000211200019C
:100030002D15000100000000C91100012D1500015F
:10004000A1120001A1120001A1120001A1120001E0
:10005000A1120001A1120001A1120001A1120001D0
:10006000A1120001A1120001A1120001A1120001C0
:10007000A1120001A1120001A1120001A1120001B0
:10008000A1120001A1120001A1120001A1120001A0
:10009000A1120001A1120001A1120001A112000190
:1000A000A1120001A1120001A1120001A112000180
:1000B000A1120001A112000153B94AB9002908BFD9
:1000C00000281CBF4FF0FF314FF0FF3000F00CB89C
:1000D000ADF1080C6DE904CE00F008F8DDF804E09D
:1000E000DDE9022304B07047704700BF2DE9F047F7
:1000F00086468C460846089E154674461946002BCF
:1001000040F0C1808542B2FA82F245D94AB1C2F1CB
:10011000200300FA02FC954094402EFA03F343EAD0
:100120000C0C4FEA154EA8B2230CBCFBFEF80EFBDC
:1001300018CC08FB00F943EA0C43994528D9EB1881
:1001400008F1FF3704D2994502D9A8F102072B44E0
:10015000A3EB0903A4B2B3FBFEFC0EFB1C330CFBA8
:1001600000F044EA0344A04214D92C190CF1FF33E7
:1001700004D2A04202D9ACF102032C44241A43EA6F
:1001800007401EB1D440002334607360BDE8F0879F
:100190004746DDE76346F1E792BB431B01214FEA87
:1001A000154EAFB2200CB3FBFEFC0EFB1C330CFB58
:1001B00007F840EA0343984561D9EB180CF1FF308A
:1001C00004D2984502D9ACF102002B44A3EB0803FA
:1001D000A4B2B3FBFEFC0EFB1C330CFB07F744EA96
:1001E0000344A7424DD92C190CF1FF3304D2A74286
:1001F00002D9ACF102032C44E41B43EA0040C0E7FF
:10020000C2F120039540944020FA03F12EFA03F343
:100210004FEA154E9040AFB20343B1FBFEFC0EFB1C
:100220001C10190C0CFB07F841EA0041884522D943
:1002300069180CF1FF3004D2884502D9ACF10200F4
:100240002944A1EB08019BB2B1FBFEFC0EFB1C1183
:100250000CFB07F743EA01439F420ED9EB180CF160
:10026000FF3104D29F4202D9ACF102012B44DB1BC7
:1002700041EA004193E76046E3E76146F7E76046FD
:10028000A4E76346B8E7834206D916B900210846B9
:100290007CE7C6E900E0F9E7B3FA83F78FB9834258
:1002A00001D3724508D8BEEB020460EB03030120C2
:1002B0009C461EB9002169E73846FAE7C6E9004CBA
:1002C000F8E7C7F1200CBB400EFA07F522FA0CF450
:1002D0002EFA0CF1BA401C4320FA0CF3B8404FEA56
:1002E000144901431FFA84FEB3FBF9F809FB1830E7
:1002F0000B0C08FB0EFA43EA00439A4540D9E31879
:1003000008F1FF3004D29A4502D9A8F10200234433
:10031000A3EB0A0389B2B3FBF9F809FB183308FB16
:100320000EFE41EA03418E452CD9611808F1FF33D6
:1003300004D28E4502D9A8F10203214443EA0040C9
:10034000A1EB0E01A0FB02984145CE46434602D3E5
:1003500006D14D4504D20138B9EB020E68EB040317
:10036000002EA7D0B5EB0E0261EB030101FA0CFCE5
:1003700022FA07F3F9404CEA0303C6E9003199E792
:100380004046C5E74346D9E7012230B50F4B02FA94
:1003900001F40F4DC3F804452C681F284FEA84036D
:1003A000144494BF00222038000203F1824340EA43
:1003B000423003F5204341F0004140F00310C3F800
:1003C00080102C60C3F8100530BD00BF00F0004164
:1003D000E001002110B5094B5A6800EA020420EA46
:1003E0000200DC609860D3F8042301EA020021EAED
:1003F0000201C3F80C03C3F8081310BD00058C41BB
:100400002023002270B5194E194DB360194BAA6014
:10041000C3F84021184A194C1268C3F8402501223C
:100420001A602368782B18D180200021FFF7D2FFB3
:10043000502201210020124B22605960C3F80001B4
:1004400003F5E0435960D960C3F84025C3F8400183
:1004500019602023F360E86070BD4FF00070002148
:10046000FFF7B8FF22680132E3E700BF00058C41C7
:1004700000088C4100100141080000210400002107
:1004800000500041F8B500234FF60D4405255A4EA3
:100490005A4FDFF86CC1C3F12000A3F1200126FA06
:1004A00003F204FA00F0024324FA01F10A4312F0C5
:1004B000010F03F1010209D01F2B04D880334CF83F
:1004C00023501346E7E7603347F82350332A134697
:1004D000E1D1494B4A4D494CAB61EB604FF60D43BE
:1004E000A361E360474B00211A46D2E90060013165
:1004F0000829AE6002F10802A060F6D10022D3E91B
:1005000000010132082AE86003F10803E160F6D136
:100510004FF000433C4F3D4EC7F8803100212B2067
:10052000C7F88060FFF730FF0C22DFF8E4C03948DD
:10053000394B3A49C7F894C1C7F89801C3F8042564
:100540000A68930001320A6042F6037203F18243A3
:1005500003F52043C3F8B0C0C3F8E000C3F810258A
:1005600000221120114600F0E5FD112000F0C6FD2B
:1005700001222B4B2B49C3F8002209681A20C3F82B
:1005800040154FF48031C3F80413C3F8441303211A
:100590001A60A3F5A043C3F808154FF00111C3F882
:1005A000001221490968C3F84015C3F8C0610A2147
:1005B0001A60FFF7E9FE0B212020FFF7E5FE1B4A3A
:1005C0001B49136943F01003136140220023AA6002
:1005D000A36072B600BF00BF20BF0868B0F1A53F9E
:1005E00006D000204FF40051FFF7F4FE00BFFDE7F6
:1005F00062B6EA60E360EAE7F000000E00088C41B2
:1006000000058C4198420001005000410A00008022
:10061000020000800300008000F00041E0010021A2
:1006200000100141080000210400002100ED00E05D
:1006300000000021014B1B68184700BF0C0000217F
:1006400007B50B46002102460091034800F014F95B
:1006500003B05DF804FB00BF350600012DE9F0474B
:10066000058B04462807904611D4022905F007059A
:1006700040F0CD80204603F050F978B10138218B4D
:10068000042811D8DFE800F0C3106D85950001291A
:100690000CBF45F0100545F02005258388F311882F
:1006A000BFF36F8FBDE8F08701F0070AAA4500F09D
:1006B000A6800027B9463E46A368002B00F0BD8007
:1006C00041F00801218388F31188BFF36F8FA1687F
:1006D000002900F0BB800D68002900F0B780334688
:1006E00052462046D1F80480C047002D76D02B68B2
:1006F00029461D46F0E701F007035A1F012A1BD8BF
:10070000002221F00701062B276889B2C4E90022E4
:1007100009D13B4603E0628B013262831B68002BE8
:10072000F9D141F002012046218303F0F6F80028B8
:100730007BD041F0200177E0042B0AD121F00701A2
:1007400089B22046218303F0E8F810B141F020017E
:100750002183218B01F0070AAA4550D00027B94612
:10076000AAE7236921F0070141F00601062DD3F81D
:10077000009021832DD1B9F1000F40D041F0080144
:10078000218388F31188BFF36F8F20463949C8470A
:1007900029E021F00701236941F0040189B2042D09
:1007A000D3F804902183E6D000274FF0040A3E4698
:1007B00082E721F00701236941F0050189B2052D87
:1007C000D3F808902183D6D000274FF0050A3E4683
:1007D00072E700274FF0060A3E466DE72B4687E793
:1007E000B9F1000FD1D14FF02003EFF3118883F35B
:1007F0001288BFF36F8F238B23F008032383258B8D
:10080000EA062ED525F01003238305F00705666957
:10081000218B002EBFF66FAF00232768C4E9003399
:1008200021F0070141F001012183218B4FF00009E4
:1008300001F0070AAA457FF43FAF002F9BD041F09B
:100840000801218388F31188BFF36F8F002FC7D071
:100850003D68394633465246204603F08AF82F4613
:10086000F4E7AB067FF51AAF25F02003238305F0EC
:100870000705FFE69F3900012DE9F04F81468B46C1
:1008800017461C46002595B0387808B9284657E326
:100890007B1C2528039306D05946C8470028C0F280
:1008A0004F830135FBE1182200210EA803F0C2F9A5
:1008B0007B78252B7DD0002398469E469C461E467D
:1008C000781C014610F8012B2B2A00F0A18000F2C1
:1008D0009880202A00F09F80232A00F09F802BB16F
:1008E0009DF8403043F040038DF84030B8F1000FE0
:1008F00005D09DF8403043F020038DF84030BEF124
:10090000000F05D09DF8403043F010038DF84030C3
:10091000BCF1000F05D09DF8403043F008038DF87E
:1009200040302EB19DF8403043F004038DF8403044
:100930009DF8403003F04400442803D16FF3861340
:100940008DF840309DF840302A2A43F080038DF81E
:1009500040307FD19DF841204B1C42F001028DF8C0
:1009600041201A782E2A0CBF012100219DF8412038
:1009700061F341028DF8412078D15A782A2A6ED04D
:1009800000224FF00A0C0133194611F8010BA0F1B7
:100990003006092E40F295809DF840101292C1F366
:1009A000400040EAD2700A4660F341028DF84020D0
:1009B0005CE0BA1C03928DF843309DF84130DA07B1
:1009C00040F12E8154F8048BB8F1000F07DA9DF83E
:1009D0004020C8F1000842F004028DF840205E0774
:1009E00040F1278154F804ABBAF1000F80F2268160
:1009F0009DF841306FF341038DF841304FF0FF3ADD
:100A00001CE12D2A0DD0302A7FF469AF012358E76D
:100A10004FF0010C55E74FF0010E52E74FF001087F
:100A20004FE701264DE703460EFB0262303A1846B7
:100A300010F8016BA6F1300CBCF1090FF3D9994203
:100A40008FD09DF840101192D20F62F341018DF8C2
:100A5000401086E70B4600224FF00A0EE7E79DF8AC
:100A60004120023342F004028DF841201A786C2AAA
:100A700047D02BD8682A31D06A2A4BD04C2A51D083
:100A80001A4612F8013B782B03928DF843309DF8FB
:100A9000412000F2BE806D2B51D8692B00F2B98045
:100AA000572B67D8412B03D0453B022B00F2B18076
:100AB00004229DF8423062F302038DF84230012394
:100AC00073E00CFB02020B46303A5DE7742A25D036
:100AD0007A2AD5D106219DF841200CE05A78682A5F
:100AE0009DF8412006D1012161F3C6028DF8412015
:100AF0000233C5E7022161F3C6028DF841200133BC
:100B0000BEE75A786C2A9DF8412001D10421EBE719
:100B10000321F0E705219DF84120ECE707219DF82E
:100B20004120E8E7BDF8402022F4F04222F0020222
:100B300042F4804242F00202ADF84020DFE76E3B13
:100B4000D9B201238B4040F282410B4237D113F0DE
:100B5000240F51D1D8075CD503219DF8423061F3B1
:100B600002038DF8423002F07803A3F140014B42BA
:100B70004B411AE00120A3F15801C9B200FA01F17A
:100B800011F4624F94D140F6010631421DD111F4A7
:100B9000043F3ED09DF8423060F3020302F0780239
:100BA000402A8DF8423034D000239DF84020C2F313
:100BB00040010B4363F341028DF84020FDE6022122
:100BC0009DF8423061F30203E8E702209DF84210ED
:100BD00002F0780260F30201402A8DF8421002BF51
:100BE0009DF8401041F001018DF84010632BDBD1DE
:100BF000131E18BF0123D8E703219DF8423012F0DD
:100C0000780F61F302038DF8423014BF01230023F3
:100C1000CBE79DF8403043F001038DF84030C3E747
:100C20009DF94020002AACBF4FF0FF38DDF844802A
:100C3000D5E698077FF5E2AEDDF848A00023CDE9C0
:100C400011339DF842309DF8411003F00703012B4A
:100C5000C1F3C30133D1CB1E042B04D8DFE803F06A
:100C6000214646212100236801294FEAE372CDE99C
:100C70000E321CD19DF93830DA17CDE90E3204342A
:100C80009DF8403013F0030650D03A465946484686
:100C9000039B02F061FF0028C0F252810544039FCC
:100CA000F2E554F8043BDA17CDE90E32E8E7022901
:100CB000E5D11AB243F3C033CDE90E23DFE7022BAF
:100CC00024D1CB1E042B04D8DFE803F01810101831
:100CD000180001294FF0000254F8043B14D00229F7
:100CE000CDE90E32CCD19BB20E93C9E7073424F084
:100CF0000704F4E80223CDE90E23C1E754F8043BCE
:100D00000E9300230F93BBE7DBB2CDE7042B08D192
:100D1000073424F00704D4E900230834CDE90E2376
:100D2000AEE7032BACD154F8043BDDE79DF843005C
:100D30007828B4D862281CD825283FF4ADAD5828AF
:100D4000ADD1DDE90E010DF13603009310AA08AB19
:100D500002F0BCFEBAF1000F074680F29980002F26
:100D60009DD00DF13603D81B002E00F0C08001305D
:100D7000BDE06338152892D801A252F820F000BFD8
:100D8000550E0001670E00019F0C00019F0C000131
:100D90009F0C00019F0C0001670E00019F0C0001D9
:100DA0009F0C00019F0C00019F0C0001F30E00013D
:100DB0008B0E0001B10E00019F0C00019F0C000181
:100DC000D90D00019F0C00018B0E00019F0C00014A
:100DD0009F0C00018B0E0001BAF1000F0E9F35DB56
:100DE0005146384602F012FF07EB000A002F3FF48D
:100DF00056AF00269DF8423013F01002059200F025
:100E0000928002305B06119A48BF129B104448BF83
:100E1000C018B8F1000F049240F39F809DF8402065
:100E2000A8EB0008C2F380035007069300F19580F9
:100E3000510640F188803EB159463046C8470028E7
:100E40007EDB069B01351E4630227DE0384602F0EF
:100E5000D6FEC9E70E9B002601208DF8203008AF92
:100E60000DF1210AC6E719075ABFC3F300135E014B
:100E70002B26DDE90E23002BBFF663AF524263EB56
:100E800043032D26CDE90E235BE7002659E7002614
:100E90009DF840200DF13603DB1B6FF386129A4557
:100EA0008DF840207FF65BAFAAEB0303119356E762
:100EB0000E9890B30DF136030093002108AB10AAF1
:100EC00002F004FEBDF84230BAF1000F03F0EF0368
:100ED00043F4F04343F010030746ADF84230D6DA4E
:100EE00000283FF4DCAE00260DF13603181A9A46AE
:100EF00080E70E9B07293FF6D2AEDFE801F00C0435
:100F0000060C08080C0C1D70C9E61D80C7E6EA1720
:100F1000C3E90052C3E61D60C1E62F4F064607F144
:100F2000050A052066E71A0748BF01306AE7104640
:100F3000079306925946C847DDE90623002804DADC
:100F400015B0BDE8F08F202243461946002903F171
:100F5000FF33ECDC454498466D1A2EB159463046B5
:100F6000C8470028ECDB01359DF84230DA0601D491
:100F70001B0705D559463020C8470028E0DB01355E
:100F8000059B33B159469DF84300C8470028D7DB7D
:100F90000135049E2E4405E059463020C8470028FC
:100FA000CEDB0135731B002BF6DC53463A4659461F
:100FB000484602F0D1FD0028C2DB0544A844A8EB56
:100FC0000503002B7FF76BAE59462020C847002849
:100FD000B6DB0135F3E700BFF54300014FF0200217
:100FE000EFF3118382F31288BFF36F8F0121044A5C
:100FF000C2F8401583F31188BFF36F8F002070474C
:1010000000000841052370B5144D154E2C780134AD
:10101000B4FBF3F303EB8303E41A02F0FEFE114A80
:10102000137823B156F82430C01A072813D90E4B71
:10103000D3F8141141B10021C3F81411D3F81431BD
:101040002C700CB9012313702C7802F0E6FE46F8E0
:101050002400012070BD0020FCE700BFD102002168
:10106000E4010021D00200210050004120B1034BD7
:10107000800143F001031847704700BF9042000110
:1010800001F016B9014910220A60704710ED00E026
:1010900072B6404080F31188BFF36F8F01B5FFF740
:1010A000B1FF00280AD0BFF34F8F30BF00BF00BF91
:1010B00000BF00BF00BF00BF00BF00BFBDE80140D0
:1010C00062B6BFF36F8F704772B6494081F31188E3
:1010D00001B5FFF797FF00280AD0BFF34F8F20BF5D
:1010E00000BF00BF00BF00BF00BF00BF00BF00BF08
:1010F000BDE8014080F3118862B6704740B2002815
:1011000007DB01234109034A00F01F00834042F836
:101110002130704700E100E0054B420953F82220DE
:10112000012300F01F0003FA00F01040704700BFD9
:1011300000E100E040B2002801F10101ACBF00F184
:101140006040064B4FEA4111C9B2ABBF00F56140A8
:1011500000F00F0080F800131954704714ED00E000
:1011600030BFFFF7FDBF00BF08B5084B084A23F0AA
:101170007F039360BFF34F8FBFF36F8F01F0D6FDF6
:1011800002F052FA00F0DCF901F010FE000000015C
:1011900000ED00E0094A0A499368096858679967B1
:1011A00008494B6843F080534B60002383F3118858
:1011B000BFF36F8F9368986F704700BFA002002144
:1011C000C843000100ED00E013498A684FF0300089
:1011D0001044EFF3098C80E8F01F202080F3128880
:1011E000BFF36F8F0D4F4FF000664A698A603E6013
:1011F000506F0023536780F3118802F1300090E8AC
:10120000F01F8CF3098802F1000004B502F0CDFC58
:10121000BDE8044070470000A002002104ED00E09A
:101220001EF0040F0CBFEFF30880EFF30980816913
:1012300011F8021C0229FFD001B502F0A7FC01BD84
:1012400042F8203C009B0B4942F81C3C019B21F0DA
:10125000010142F8183C029B42F8081C42F8143C79
:101260004FF0807342F8043C0023203A0265436744
:10127000704700BF07390001084B9860436E83F345
:101280000B88104681F30988002163B681F3118829
:10129000BFF36F8F0022002302F035FBA002002174
:1012A00001B5EFF30580A0F110004FEAC00004493A
:1012B000014409C99847BDE80140024908470000B8
:1012C00054410001C9120001044B996858698842D1
:1012D00003D003494FF080520A607047A0020021FA
:1012E00004ED00E0154B9A6A12F0007F9A6A14BF71
:1012F0001E201D2012F0807F9A6A18BF1F2012F452
:10130000801F9A6A18BF022012F4002F9A6A18BF31
:10131000212012F4802F9A6A18BF222012F4003F75
:101320009A6A18BF232012F4803F9A6A18BF2420BB
:101330006FEA02426FEA12429A62704700ED00E0E3
:1013400010B5164B9A6A9C6A12F4805F14BF17227C
:10135000162214F4006F9C6A18BF1822A40509D540
:101360009A6B9A6A120404D518B19A6A22F4004260
:101370009A621922094B986A10F4806F986A18BF14
:101380001A2210F4807F986A40F47F4098624FF0F0
:1013900000030CBF10461B200B7010BD00ED00E0D9
:1013A00010B5154B0246986A9C6A10F0100F14BFD6
:1013B0001120102014F0080F9C6A18BF1220A407F7
:1013C00009D5586B986A000604D51AB19A6A22F0BA
:1013D00080029A621320084B9A6A12F0010F9A6AEF
:1013E00018BF1420D20658BF9A6A9A6A42F0FF02C8
:1013F0009A6200230B7010BD00ED00E070B5444B05
:1014000006465B6800258AB0C3F3080385F311889C
:10141000BFF36F8F02F07F40B0F17F4F11D102F028
:101420000C0008280DD010074CBF0E4601250022E5
:10143000033B8DF80720032B05D8DFE803F01E5C83
:1014400060592E46F3E700249DF807309BB920220F
:10145000314602A802F0E3FB099B002D53D0C3F3F1
:10146000080222B96FEA53236FEA43230993204607
:1014700002A902F089FB0AB070BD254BDA6A910718
:10148000E1D4DA6A002ADEDBDA6A5200DBD55A6977
:10149000B16942F480725A61BFF34F8FBFF36F8F0F
:1014A0005A6931F8021C22F480725A61BFF34F8FDF
:1014B000BFF36F8F4DF60272914209D09A6AD2B291
:1014C00042B101200DF10701FFF76AFF0446BBE7B7
:1014D0003468B9E79A6A12F47F4F05D001200DF104
:1014E0000701FFF72DFFF1E79B6AB3F5803FAAD311
:1014F000FFF7F8FEEAE700200DF10701E4E700201E
:101500000DF10701EDE723F4FF7323F00103ADE7CD
:1015100000ED00E0044B5A6942F010025A615A692A
:1015200042F480625A61704700ED00E0EFF30880FA
:10153000EFF3098101B57246FFF760FF01BD00BFFF
:10154000002320210348C21801331E2B82F8001308
:10155000F9D1704700E100E0002080F31488BFF368
:101560006F8F002080F30A8880F30B88FFF788FDD7
:1015700000200E490860BFF34F8F0D4880F30888A4
:1015800000F02CF8202080F311880A484FF4006105
:10159000401880F30988EFF314800221084380F398
:1015A0001488BFF36F8FFFF7DFFD000094ED00E0BC
:1015B000D80F0021D8020021002318460649D1F88F
:1015C0009020C2F30722934200DB7047C1F89830A5
:1015D000C1F8A0000133F6E700ED00E010B572B6E7
:1015E000002484F31388FFF7E7FF23464FF0FF3012
:1015F0000C4A03F120010133102B42F82100F8D1ED
:1016000000234FF0FF30074A03F160010133102B34
:1016100042F82100F8D162B6BFF34F8FBFF36F8F4E
:1016200010BD00BF00E100E0084B9B6883420BD176
:10163000EFF3058343B1064B5A6842F080525A607B
:101640005A6A22F400425A6201F08EBFA0020021C1
:1016500000ED00E01FB5094C094A23460121094865
:1016600000F0EAF800230393074B0121E41A01A8D4
:101670000193029400F0EAF804B010BD00000121CB
:101680000000002118430001A000002110B50C7AD1
:101690000B6804F01F0223F01F031A43CB68640990
:1016A00023F01F03054943EA440343F00103C1F853
:1016B0009800C1F89C20C1F8A03010BD00ED00E0FA
:1016C0002DE9F04F0F46144606464FF000084E4DE8
:1016D00085B0B84580F29480D6F80490B9F1000F37
:1016E00036D0B9F11F0F40F2898019F01F0F40F07A
:1016F0008580D6F800A01AF01F0F7FD1504602F067
:1017000058FA834609EB0A00013802F052FA834581
:1017100074D11BF1160F71D05C456FDDC5F898B020
:10172000D5F89C10C5F898B0D5F8A03021F01F016D
:1017300043F01F0AD6E900321A44994202F1FF39F8
:101740001ED1CA4508D131465FFA8BF002F03AFA51
:1017500008F101080C36BCE73146C5F898B0D5F859
:101760009C3022F01F0203F01F031343C5F89C3086
:10177000E0B202F027FA10F1160F3FD0441CE7E761
:10178000C5F898B0D5F8A020013B23F01F0302F064
:101790001F021343CA453146E0B2C5F8A030E8D075
:1017A00002F010FA10F1160F28D0C5F898B0D5F84D
:1017B0009C209DF808300AF1FF3A62F304038DF88B
:1017C0000830D5F8A0309DF808205B0863F3471275
:1017D0008DF80820D6E900321344009323F01F034C
:1017E000411C5344A3EB0903C8B223F01F0307288D
:1017F000039303D86946FFF749FFBFE76FF015046D
:10180000204605B0BDE8F08F00ED00E00522044B56
:10181000C3F89420BFF34F8FBFF36F8F704700BFA3
:1018200000ED00E0BFF35F8F0022024BC3F894206D
:10183000704700BF00ED00E010B5034C2278FFF7C1
:101840003FFF207010BD00BFD20200212DE9F74FED
:10185000294D8A4606464FF00008AB46274FD04533
:101860001BDAD6F80490B9F1000F3FD03168084672
:10187000019102F09EF90199044609EB010001383B
:1018800002F097F984424FF014021D4B08D002FB7E
:1018900008F36FF015024BF8032003B0BDE8F08F9A
:1018A00014F1160F2C60F8D01978A142F5DD02FB77
:1018B00008B0C7F89840C7F89840D7F89C4000F1A6
:1018C0000801007B64F304000871D7F8A0000C79CC
:1018D000400860F347140C71D7F89C1021F01F01E9
:1018E0006960D7F8A01021F01F01296108F10108F3
:1018F00014350C36B3E700BFF801002100ED00E01D
:10190000D202002138B50E4D2C68082C15D80020C5
:10191000FFF788FF0B4B0C4AC3F8C020844205D167
:101920000A4B00201C70FFF771FF38BD696801EB9E
:101930000011FFF7ABFE0130F0E74FF0FF30F4E7A6
:101940002443000100ED00E0AAFF4400D202002180
:10195000084B70B5C31A0D4607499B1004465943FE
:101960004022064802F08BF92B4601462046BDE88E
:101970007040184720020021B76DDBB60C41000112
:10198000402373B50B4C0093041B0B460D460A49CC
:10199000A41061430646094A094802F09DF9011E58
:1019A00005DA30462B4602B0BDE87040184702B059
:1019B00070BD00BF20020021B76DDBB6453D0001C0
:1019C0000C41000170B50022012104460520FFF7FB
:1019D000B1FB0F4800F066FD0E4B984215D100F0A8
:1019E00071FD26690C49304601F0E7FF00280BDB4A
:1019F000012535642469084904F11C0001F0DDFF6C
:101A0000002801DB0020E56470BD6FF00400FBE7F7
:101A1000511A00010000AD0B4C43000101460C239C
:101A200000224B4370B50848C41840331844D4E929
:101A30000E56A26302F010F92DB132462B46BDE8D6
:101A400070400248184770BD200200210C4100017F
:101A500010B1012804D07047034B1B6C5B0701D108
:101A6000FFF7DCBF704700BF2002002108B54FF030
:101A70002003EFF3118183F31288BFF36F8F114AB4
:101A8000136843F002001060DA0708D481F311886C
:101A9000BFF36F8FBDE80840012000F025BD0A4B61
:101AA000D3F80C24D3F80C34D307EFD5074802F051
:101AB000D3F881F31188BFF36F8FBDE80840002091
:101AC000FFF7ACBF7002002100500041600200210E
:101AD0001FB500220123CDE902236B46084ACDF849
:101AE00000D0CDF804D002F026F9002805DB4FF431
:101AF00080420023684601F073FA05B05DF804FBEC
:101B0000633D000110B54FF02003EFF3118483F320
:101B10001288BFF36F8F074A136823F00201DB07B7
:101B2000116002D4012002F07FF984F31188BFF321
:101B30006F8F10BD700200212DE9F0410122074690
:101B40003549D1E8EF3FC1E8E02F0028F9D133B99A
:101B5000324933484B60CB608A6001F041FF7B1E05
:101B6000012B28D8012F06D12E4BD3F81C3403F0BB
:101B70000303022B1FD002F0DCF90546E8B92A4B1B
:101B80001B78D3B102220646264BC3F80823254C06
:101B9000DFF89880D4F81834D4F81824D20316D576
:101BA00003F00303022B01D0012F10D175B386F38C
:101BB0001188BFF36F8FBDE8F0814FF02003EFF382
:101BC000118683F31288BFF36F8F0125DFE7C5B15C
:101BD0003046FFF779FAD4F81835DBB2012BD9D1AA
:101BE000D4F80421002AD5D00022C4F80421D4F866
:101BF00004210222C4F818252022C8F88021A360FD
:101C0000C8E70021212001F08FFCE4E70222054B08
:101C1000C3F80423CFE700BF1C0200210C020021FF
:101C20003C02002100500041D302002100E100E00D
:101C300030B5406801F01F04057BB2F5001F85B088
:101C400044EA451405D1204600F006FF002005B007
:101C500030BD0025B2F5800FCDE9025514D1B3F1A6
:101C6000007F0CBF042305238DF808300023204695
:101C7000194602AA00F02CFD1F4B984238D10121D1
:101C8000204600F0A3FEE1E7B3F1C06F25D0B3F129
:101C9000007F14BF012302238DF808308368CB40F6
:101CA000D907E3D4B2F1A07FE0D1144A1448610906
:101CB000012908BF024604F01F03803352F8233085
:101CC000DB07D3D40DF107052946204600F02AFE94
:101CD0000C4B984203D00395C8E70323DCE7284662
:101CE00000F06EFE044B9842F5D06FF00B00AEE7AB
:101CF0006FF01500ABE700BF0000AD0B00058C4195
:101D000000088C410400AD0B10B500F049FE0446FC
:101D100068B900F01DFE084B98420AD121460748D9
:101D200000F0FAFD224605210A20FFF703FA002001
:101D300010BD6FF00400FBE70000AD0B411D00017A
:101D40004209034670B502D0012A17D070BD0D4E6E
:101D5000326951680029F9D0012503F01F030C688E
:101D60009D400029F2D08A682A4002D030464B6854
:101D700098472CB1236821461C46F2E7024EE7E75C
:101D80002346F8E73C410001244100012DE9FF41D1
:101D9000476801F01F053B7B144645EA43150E4694
:101DA00028460DF1030100F0BDFD14F4403F8046CC
:101DB0000BD1284600F078FE3C4B984503D19DF8A6
:101DC000030000F0F7FD00200CE000232846194630
:101DD00002AACDE9023300F07BFC344B984204D0D8
:101DE0006FF0150004B0BDE8F081804503D19DF887
:101DF000030000F0DFFDA30349D540F20633234082
:101E0000B3F5837F19D00CD8062B17D004D8ABB10B
:101E1000022BE5D1042311E0B3F5807FE0D101234B
:101E20000CE040F20222934226D0B3F5407F25D049
:101E3000B3F5007FD4D1022300E007238DF80430EE
:101E400084F48033C3F30043E0068DF805304CBFC3
:101E50000323C4F3401321038DF8063010D501236A
:101E60007A68B34093600022284601A900F0E0FCA4
:101E70000E4B9842A7D0B3E70523DFE70323DDE746
:101E8000620341BF01237A68B340D360EBE7E30606
:101E90004FF000034CBF0324C4F340141A462846F5
:101EA00001A98DF8044000F013FCE1E70000AD0B40
:101EB0000123834070B5DC430B4AD2E8EF1F01EAEF
:101EC0000405C2E8E65F002EF7D14FF4803282406D
:101ED0000648C0F80823BFF35F8FBFF36F8F0B4234
:101EE00014BF0120002070BD90020021006001415C
:101EF00070B40E4922F07F46D1E90034D01AC318DD
:101F000044F10004C1E90034A6F50013B3F5400F15
:101F100009D2074B1B681A0A1B069C19054B42F194
:101F20000005C3E9004570BC01F054BCB0000021BD
:101F300094020021B8000021D9B101230D4A834049
:101F4000D2E8EFCF4CEA030CC2E8E1CF0029F7D189
:101F50004FF48033084A8340C2F80433074BD3E878
:101F6000AF3FC340DB0742BF4FF48002044BC3F8CE
:101F70000021704790020021006001418C02002185
:101F800000E100E00D4B1868010A0006BFF35F8F07
:101F90000B4BD3F80435181841F10001B3F5801F3D
:101FA0000AD2084BD3E90023904271EB030303D21A
:101FB00010F1807041F10001704700BF94020021D0
:101FC00000600141B80000212DE9F74F16461F4679
:101FD0000446FFF76DFF0090FFF7D4FFB04271EBAE
:101FE000070350D2384B301A67EB0101984271F168
:101FF000000165D2354B03EB0413D3E902239F4262
:1020000008BF964249D04FF48039314909FA04F9A2
:10201000204626F07F4BC1F8489301F0F2FE4FF0C6
:10202000030A584604F15005AD00ADB205F18245F2
:1020300004F5A873274A05F5B0350193DDF804C00F
:1020400020F07F4341F82C30C1F84493D1F8048547
:10205000A0EB0800033820F07F4090421DD928688B
:1020600060B1D1F80485A8EB0B0020F07F40B0F5FB
:10207000000F12D9204601F0C4FE164A0AEB0800F0
:102080000AF1010ADAE70123134AA340D2E8EF0F6D
:102090001843C2E8E10F0029F8D100250B490C983C
:1020A000230101EB0412C850C2E902670D9B536083
:1020B00020460099FFF740FF284603B0BDE8F08FA7
:1020C0006FF01505F4E700BF01008000A0000021BB
:1020D00000600141FDFF7F008C02002173B50025E7
:1020E0004FF0FF304FF0FF31184C194B0226C4F867
:1020F0000833C4F84833174BC4F80855C3E9020144
:102100004FF480334FF48002C4F80433124B0121A2
:10211000C4F804631620C3F880212A46FFF70AF8A2
:102120001620FEF7EBFF01230C4AA3602360136027
:102130000B4B0C4A0093284600230195FFF744FF00
:102140003046FFF7F9FC284602B070BD006001413F
:1021500003000F00A000002100E100E09002002138
:10216000F11E0001FFFF7F002DE9F7432E4BD3F84E
:10217000042390070BD5D3F8042142B10022C3F801
:1021800004212A4AD3F80431136801331360264A24
:10219000D2F80433D90327D5254BD3E8EF1F21F01C
:1021A0000100C3E8E40F002CF7D1CB0702D4D2F82A
:1021B0004031CBB100251C4CC4F84051D4F840311B
:1021C000FFF7E0FE4FF02003EFF3118283F3128854
:1021D000BFF36F8F174BD3E90267B042B94106D204
:1021E00082F31188BFF36F8F03B0BDE8F0834FF027
:1021F000FF38D3E900104FF0FF391D60C3E90289B1
:102200004FF48033C4F84833C4F84051D4F8403117
:1022100082F31188BFF36F8F0029E5D0009032461A
:102220003B4628468847DFE70060014194020021D1
:102230008C020021A0000021431C13B521D00128ED
:1022400021DD124A124B9042D4BF04461C46FFF7D0
:1022500099FE104B0E49D3E90023801AB0F5000F08
:1022600028BF002404448C4228BF0C4600200A49A1
:10227000A2180190009143F10003FFF7A5FE02B000
:1022800010BD034CE3E70124E1E700BFFEFF7F0040
:10229000FFFF7F00B0000021F11E000108B5FFF72D
:1022A00071FE024B1B68C01A08BD00BFB0000021C0
:1022B0000022D30003F1FF7303F58033D3F800133A
:1022C000013107D0D3F800130132D3F80433202AA8
:1022D0000B60EED1224BD3E94C32072B26D1023AC8
:1022E000032A204B28D9D3F80024D10732D41C4B21
:1022F000D3F83021072A19D1D3F83431023B032B0C
:1023000002D8194AD35C8BB17F23184A1849C2F806
:1023100018310023C1F8043EC1F8083EC2F8243148
:10232000C2F82C3102F57F22C2F81031114B1A6825
:10233000114BC3F84425704710498A5C002AD2D05B
:10234000D3F80024D207CED50022C3F81421C3F855
:102350001821C8E76FF00102C3F80024C7E700BFE7
:102360000000FF01005000414B44000100200041EB
:10237000000008410080FF01006000414F4400015F
:1023800070B501250268B2FA82F3C3F11F03DBB214
:1023900005FA03F422EA0404D0E8EF6F964204D170
:1023A000C0E8EC4FBCF1000FF6D1EBD101480B7047
:1023B00070BD00BF0000AD0B10B50368CB40DB075C
:1023C00010D401238B40026843EA0201D0E8EF4FAA
:1023D000944204D1C0E8EC1FBCF1000FF6D1F2D159
:1023E000014810BD0148FCE70000AD0B0400AD0B37
:1023F000F7B5044618B101281ED003B0F0BD022283
:10240000274B0746C3F80823C3F80401D3F8042177
:102410000122DA60012342F21075214E8DF8073057
:10242000B4B1012CE9D187B3D6F80C3403F0010321
:102430003B70D6F80C3413E00022194B0DF107075E
:10244000C3F80803C3F80021D3F800215860E1E77E
:102450008FB1D6F8183403F003033B70D6F8183464
:10246000DA03CAD59DF807000128C6D101F0DAFCCD
:10247000013DD5D1C1E7D6F81834D903BDD5012027
:1024800001F0D0FC013DF6D1B7E7D6F80C34DB0300
:10249000B3D5012001F0C6FC013DF6D1ADE700BF88
:1024A00000500041044B1A7922B9012218601A71B8
:1024B0000248704702487047980200210000AD0BA7
:1024C0000C00AD0B08B50520FEF726FE10B905205F
:1024D000FEF714FE0122034BC3F81825C3F8142598
:1024E00008BD00BF0050004108B510B101282ED032
:1024F00008BD1C4AD2F81834D2F81814C9030ED4F7
:10250000D2F81434DB0713D5D2F81C3403F00303DC
:10251000013B012B09D80223C2F80433E8E703F09A
:102520000303022B05D0012B02D00020FFF760FF30
:1025300001230C4AC2F818350023C2F80431D2F83E
:1025400004310223C2F8043301239360D0E7002250
:10255000044BC3F80021D3F80021C3F8040318602A
:10256000C6E700BF0050004110B5174BD3F800215B
:1025700052B10020C3F80001D3F800210122C3F8B2
:102580000823124B1B6898470F4BD3F804218AB1DC
:102590000022C3F80421D3F80421D3F81824D3F877
:1025A000181402F00302012A4FF0020103D1C3F80C
:1025B00018159A6010BDC3F80813044B0120BDE83C
:1025C00010401B68184700BF0050004198020021CE
:1025D000036803F01F020260034A04485B09012BF1
:1025E00018BF1046704700BF00058C4100088C41A1
:1025F000034B083033F81000C0F34010704700BFA1
:102600001000002170B50D4C00F1080334F81330B0
:102610000546DA050E4607D5C3F3432304EBC30290
:10262000526854F833309847A3682BB13146284696
:10263000E268BDE87040184770BD00BF100000217F
:1026400010B4124A083032F81030D9051BD5C3F344
:10265000432123F4F85322F81030002002F10E0435
:1026600034F8023F13F4807F03D0C3F3432399422D
:1026700009D001303028F3D1002342F8313004482A
:1026800010BCFFF799BE10BC704700BF10000021BE
:102690008400002138B50246FFF7AAFF0B4C02F177
:1026A000080560B1002134F815305B0B9B0003F185
:1026B000824303F52043C3F81015C3F810151046E4
:1026C000FFF7BEFF002324F8153038BD10000021AD
:1026D0002DE9FF41044690461D4601B3504E00F1DE
:1026E000080736F817309B0702D5FFF781FF28BB94
:1026F00000232046CDE900338DF80E308DF80F30E1
:102700000DF10F020B460DF10E0101F08FFB36F8B3
:10271000173023F0020343F0010326F81730B8F115
:10272000000F2DD03E4E04F1080736F8173098F808
:1027300000009907D8F8042002D5CAB1394821E031
:1027400023F02003DB04DB0C26F8173082B10328CA
:10275000F4D8D8F8042092F800C04FEA8C0202F1B5
:10276000824202F5204280B9C2F81005C2F8100575
:1027700036F8173023F01C0343EA800326F817309D
:102780001DBB294804B0BDE8F081D2F8101543EA1A
:102790004C3321F00301C2F81015D2F8101543F0A4
:1027A000200321F44F3121F44071C2F810152102A9
:1027B000D2F810E501F47C5141EA004141EA0E01F2
:1027C000C2F8101526F81730D2E72046D5E9006781
:1027D000FFF736FF002ED4D0114DD5E900239642E5
:1027E00001D19F4219D011480DF10F01FFF7C8FD2B
:1027F0000D4B9842C6D19DF80F2005EBC20304F1A2
:1028000008005F6035F8103045F8326043EA422333
:1028100043F4807325F81030B3E70022EDE700BFE2
:10282000100000210400AD0B0000AD0B840000215E
:10283000F0B50446164685B019B3344D00F10807CB
:1028400035F81720930703D4FFF7D2FE00285AD19A
:1028500012F01C0F02D04B78012B54D001238DF8BD
:102860000F3000234A1CCDE9001320468B1C0DF1CC
:102870000F0101F0DBFA35F8173043F0030325F8B8
:10288000173016B9224805B0F0BD204A04F10807F8
:1028900032F81700830736D5002396F800C020F0E1
:1028A00020004FEA8C0101F18241C00401F5204172
:1028B000C00CC1F8103522F81700C1F81035757832
:1028C000002DDFD0D1F81035B67823F4991323F416
:1028D000F853C1F81035D1F810E5230203F47C5306
:1028E0002D0443EA0E0305F4403534052B4304F46C
:1028F000801440EA4C30234340F02000C1F81035EA
:1029000022F81700BEE70348BDE700BF1000002112
:102910000000AD0B0400AD0B014BC3E90201704791
:102920001000002108B50246FFF762FE38B1054BE2
:10293000083233F8123004485B0B0B7008BD0348B3
:10294000FCE700BF100000210000AD0B0400AD0B40
:1029500038B50F4C94F87850BDB96022294604F17F
:10296000100001F067F90A20FEF7C8FB094B0A487E
:10297000C3F87C51D3F87C214FF00042C3F8042304
:10298000012384F87830636738BD0448FCE700BF52
:102990001000002100A000410000AD0B0500AD0BB0
:1029A000034B93F87800003818BF0120704700BF30
:1029B0001000002101460148FFF7FEBC8000002105
:1029C00001460148FFF7DCBC8000002137B5044612
:1029D000FFF70EFE1E4B04F1080233F81230E8B187
:1029E00013F002051AD15B0B9A0002F1824000F548
:1029F000214002F18242056002F520420068D2F8CF
:102A0000100540F00100C2F8100529B1012202FAB8
:102A100003F3104AC2F8043303B030BDC3F382039A
:102A2000042B11D0052B11D001A80194FFF7D0FD84
:102A3000019B0169D94001F001010231204603B038
:102A4000BDE8304001F03BBA0321F7E70221F5E78A
:102A50001000002100A0004108B50246FFF7C8FDA4
:102A6000C0B10F4B02F1080133F81130990711D4AE
:102A700001225B0B9A400B499B0003F18243C1F892
:102A8000082303F52043D3F8102522F00302C3F8EE
:102A9000102508BD0021BDE80840104601F00FBA1E
:102AA0001000002100A0004113B5104B00F10802F6
:102AB00033F812300446DB0716D5FFF7CDFF20466A
:102AC000FFF7E8FD01A80194FFF782FD019B00EBF1
:102AD0008300D0F8003203F0E04343F00203C0F873
:102AE0000032034802B010BD0248FBE7100000218D
:102AF0000000AD0B0400AD0B2DE9F04F00260122C4
:102B00003446654B6548664987B01D6835B1D0F8D5
:102B1000045315421EBF1C601D68164304338B42CC
:102B20004FEA4202F1D15D4BD3F87C31002B00F02B
:102B30009680DFF87091DFF87081D9F82030049327
:102B4000C9F82030D8F820300593C8F820304FF06D
:102B5000000A0DF1100B4FEA4A13009348E094FA73
:102B6000A4F4B4FA84F4009B504A1C4404F1080312
:102B700032F813700123E00804F0070203FA02F2AE
:102B80001BF80030039423EA02030BF8003003A87B
:102B9000FFF71EFD039BB908803350F82330C7F3BD
:102BA00082054A072F46C3F301432BD520463946F9
:102BB000DDB2FFF727FD03A80394FFF709FD039B90
:102BC000803350F82330C3F301439D4207D10021E5
:102BD000204601F074F92946204601F070F903A857
:102BE0000394FFF7F5FC0122039B02FA03F303624F
:102BF0005BF82A40002CB2D1BAF1000F1DD14FF082
:102C0000010AA8E7022B0CD10321204601F057F955
:102C100005F00503012BE2D139462046FFF7F2FC0F
:102C2000DDE702212046019301F049F9032DF3D09D
:102C3000019B032BD3D1022DEDE7184BC3F87C4148
:102C4000D3F87C31D9F820300493C9F82030D8F873
:102C5000202013430592C8F820207FF478AF012488
:102C600016B907B0BDE8F08F96FAA6F3B3FA83F36E
:102C700004FA03F29B0003F1824303F52043D3F8E7
:102C80001005D3F81015C0F30520C1F3014126EA61
:102C90000206FFF7B7FCE3E700A1004100A00041F6
:102CA00020A1004100058C4100088C41100000214A
:102CB000104B70B553F82040013053F82060A64205
:102CC00000D870BDD4E900358DB12846984738B199
:102CD0000028B8BF4042FF28A8BFFF20EB6818704B
:102CE000EA68537843F0010353700834E7E79847E4
:102CF000FBE700BFCC430001012208B5094B0320CC
:102D00001A70FFF7D5FF00F0E9FD0420FFF7D0FFB0
:102D100000F0EAF8FDF7B6FB034A137B23F001034A
:102D2000137308BDD30200214001002108B50348F8
:102D3000034A0021121A01F0F8F808BDA000002192
:102D4000D80200210023012270B586B0CDE904230A
:102D50000F220193CDE9023214230F4D0F4E03FBD6
:102D600000550F4906EBC016044601EB00214FF455
:102D7000807230460B4B009500F086F8737B2C7404
:102D800023F004037373084B013403EBC423EE6098
:102D90006B6006B070BD00BFA0020021C000002122
:102DA000D80A00213F3F0001D802002180B5002051
:102DB000A6B0FFF77DFF2D4B03F5006282F3088874
:102DC00083F30A880024E023294D2A4E85F8223017
:102DD000EC772C766C76AC7685F820406B6A264FC3
:102DE00043F4E0236B6285F82340FEF793FBFEF784
:102DF00049F94FF0FF33AB62EB62FEF783FDFEF75C
:102E000029FC40F20113ADF8243006ABB360CDE9E4
:102E10001F44229401F05FF90120FFF749FF0220CF
:102E2000164DFFF745FF00F0F5FA154B7561059358
:102E3000012314494FF48062CDE9033328463B4611
:102E4000CDE90144009400F01FF806466A7B28464D
:102E500022F004026A7301F0B8F82046FFF772FF0F
:102E60003A4631462846FEF707FA00BFD80200214D
:102E700000ED00E0A0020021F92C0001400100213A
:102E80006A440001D80B00212DE9FF410E9E00F19C
:102E9000580506730426C0E91655002504464673F6
:102EA0000D9EC0E906558673D61D0C9A26F00706BE
:102EB000C0E919168560C573C56602920B9A01EBCD
:102EC000060801920A9A00924246FEF7B9F9054BAC
:102ED00065659B6803B11B6F4046236704B0BDE87E
:102EE000F08100BFA00200212DE9F043294C2A4DBA
:102EF00087B02646AE4204F12C040FD300F05AFAF4
:102F00004FF4004640F2E737224CDFF89090AC4295
:102F100020D307B0BDE8F04300F060BA54F8043C99
:102F2000059354F80C3C049354F8103C039354F864
:102F3000143C029354F8183C019354F81C3C009341
:102F400054E9092354E90B01FFF79EFF54F82C3C88
:102F50005E65CEE7636A5A1C0DD00021384623EA2D
:102F6000E373C3FB060151EAC333D4F8008004D1F4
:102F7000404600F0CFF92C34C9E74FF47A720023B1
:102F8000FDF79AF802460B4608F11800494600F092
:102F9000ABFBF0E744420001444200012F40000136
:102FA00038B504464FF02003EFF3118583F3128800
:102FB000BFF36F8F01F03FF848B10022826701F044
:102FC00004F82946BDE83840044800F091B9D4E936
:102FD00002329A4218BF0133A360F2E7D402002103
:102FE00013B54FF02004EFF3118184F31288BFF37F
:102FF0006F8F846844B1013C846081F31188BFF312
:103000006F8F002002B010BD52EA030406D181F395
:103010001188BFF36F8F6FF00F00F3E7CDE9002346
:103020000246024800F046F9ECE700BFD402002156
:10303000C3897F2B12D80A4B1B6863B1094B90F9E7
:103040000E201B689A4209DB437BDB0606D1064B48
:10305000C31A18BF012303F0010070470023FAE7E9
:10306000C8020021C4020021C00000210122044B3B
:10307000C01A044BC0105843034B1A54704700BF8A
:10308000C0010021ABAAAAAAD402002170B50E4B40
:103090000E4C1E7C182303FB06440546204600F018
:1030A000FCFF00220A4B28469A55FFF7C1FF48B1A2
:1030B000084B2046BDE870401A680749013AD3170B
:1030C00000F012BB70BD00BFA0020021C0010021B2
:1030D000D4020021C80200216D30000138B50D4D29
:1030E0002B4653F8184F9C4200D004B9EC68AB68EB
:1030F00038B95A7BD20604D1A26912B9DA897F2A7B
:1031000005D89C4202D02046FFF7C0FF23466B61E2
:1031100038BD00BFA002002170B590F90D20014616
:10312000002A437B04DA03F07F03437300F013FFAC
:10313000154A4B7B104663F07F034B7350F8183FE2
:10314000D469834208BF002323B9C1E90004216088
:10315000D1610CE091F90E5093F90E60B5420ED09A
:10316000AE420CDD5868C1E90030016059609068DA
:10317000BDE87040431A58425841FFF7AFBF9C4228
:10318000E3D01B68E0E700BFA002002170B490F913
:103190000D30427B002B29DBD30627D183692BBB63
:1031A000134962F07F0242730A4652F8184F944264
:1031B00018BF2346CC6923B9C0E900242060C86148
:1031C0000CE090F90E5093F90E60B5420AD0AE4271
:1031D00008DD5A68C0E9003210605860002070BCF9
:1031E000FFF77CBFA342E7D01B68E4E770BC7047E1
:1031F000A002002108B590F90D200146002A437B6A
:1032000004DA03F07F03437300F0A5FE044B9868D3
:10321000431A58425841BDE80840FFF75FBF00BF5E
:10322000A002002170B515461C46064600F0A5FE1A
:10323000B4F1FF3F08BFB5F1FF3F08D02A4623464F
:1032400006F118000249BDE8704000F04DBA70BDAB
:103250002F40000138B54FF02003EFF3118583F3C1
:103260001288BFF36F8F104B104A9C681068A04201
:1032700006D1FFF70BFF85F31188BFF36F8F38BDC1
:1032800000211B7C11600A4AD35C002BF3D020463E
:10329000FFF7CEFE0028EED0637BDB0602D120468E
:1032A000FFF73AFF2046E4E7A0020021C002002118
:1032B000D402002170B50C480C4D86680C462E6077
:1032C0001146DDE904234FF02006EFF3118586F364
:1032D0001288BFF36F8F8068FFF7A4FF2046BDE818
:1032E0007040FDF757BF00BFA0020021C0020021BF
:1032F00049B9EFF3058030B9054B5A699B689A428A
:1033000001D0FDF747BF81F31188BFF36F8F70477E
:10331000A002002110B54FF02002EFF3118482F3D8
:103320001288BFF36F8F427B510704D484F3118856
:10333000BFF36F8F10BD22F004024273FFF726FF28
:103340002146BDE810400148FFF7D2BFD502002159
:1033500070B50446183000F0A0FE4FF02003EFF3E4
:10336000118683F31288BFF36F8F94F90D20637B6E
:10337000002A05DA03F07F032046637300F0EBFDBB
:103380000B4D637BA86843F010036373031B584223
:103390005841FFF7A3FE86F31188BFF36F8FAB6828
:1033A000A34203D1BDE8704000F06DBE70BD00BF08
:1033B000A00200214FF02003EFF3118183F3128864
:1033C000BFF36F8F044B9A68D37B013BD37381F3B8
:1033D0001188BFF36F8F7047A002002110B54FF026
:1033E0002003EFF3118483F31288BFF36F8F084B30
:1033F00000209A68D37B0133D373FFF76FFE84F309
:103400001188BFF36F8FBDE8104000F03CBE00BFD5
:10341000A0020021024B03F11802C3E90622704703
:10342000A0020021F8B54FF02003EFF3118583F3DC
:103430001288BFF36F8F19498868437B03F07F03BD
:10344000437300F088FD08468B685A7B62F07F0268
:103450005A7350F8182FCC69824208BF002222B953
:10346000C3E900042360CB610CE093F90E6092F98C
:103470000E70BE420ED0B7420CDD5168C3E9002188
:103480000B6053600120FFF729FE2846BDE8F84095
:10349000FDF780BEA242E3D01268E0E7A00200215F
:1034A00050EA01032DE9F04105460E4603D1FFF72E
:1034B000B9FF00202CE0831C71F1FF332ADB00F000
:1034C00002FE2C184FF02003EFF3118883F31288CB
:1034D000BFF36F8F114F124BB8681860FFF78AFE69
:1034E000B86810492A463346183000F0FDF8BA682B
:1034F0004046537B43F010035373FDF74BFE00F03F
:10350000E2FD201A63EB0303012873F10003D0DB13
:10351000BDE8F0816FF00104241AD3E7A002002176
:10352000C00200212F400001B1F1FF3F08BFB0F100
:10353000FF3F08B506D1084B9868FFF709FF4FF029
:10354000FF3008BDFFF7ACFF4FF47A7380FB030335
:10355000C00B40EA4340F4E7A0020021014B986809
:10356000704700BFA00200212DE9F04104464FF052
:103570002003EFF3118683F31288BFF36F8F037B71
:10358000D9070BD586F31188BFF36F8F404080F3C6
:1035900011884FF0040002DFBDE8F081437B1A0779
:1035A00004D586F31188BFF36F8FF5E723F020026F
:1035B00042F00801D20920D14173A36813B120461B
:1035C00000F0D1FC04F1180000F067FD4FF0000896
:1035D00004F15807A56DBD4200D0B5B90120FFF731
:1035E0007DFD104B9B68A342DBD1EFF30583002BDD
:1035F000D7D13046FDF7CEFDD3E703F05F0343F0AC
:103600000803437300F0A7FCD7E7284600F0ABFCA3
:1036100005F1180000F041FD2846C5F87880FFF755
:10362000B5FDD7E7A002002108B50648064A0749BC
:10363000121A00F07CFCBDE80840054A054906481E
:1036400000F075BC000000219A000021A044000198
:1036500000000000A044000100000021034B1B6893
:103660000BB9FEF71BBE0020704700BFCC02002143
:1036700010B50E4B1C689C4204D1FFF7EFFF6FF0B2
:10368000004010BDFFF7EAFF002CF8D0D4E9043267
:103690001B1A62EBE072B3F1004F72F10001EEDA37
:1036A000002AACBF18460020EBE700BF8C000021C9
:1036B00030B570B10B4B5B6898420AD0036843B1D8
:1036C000D3E90421D0E90445121941EB0501C3E90E
:1036D0000421D0E9003213605A600023C0E90033AE
:1036E00030BD00BF8C000021B3F1FF3F08BFB2F135
:1036F000FF3FF8B504461D4616465CD081604FF08A
:103700002003EFF3118783F31288BFF36F8F013229
:1037100075F1FF3324DA6FF001032C49D1E9002061
:103720009B1A4FF0FF3262EB00009E1B60EB05001E
:10373000012E70F1000301DA01260020C4E90460C3
:10374000234ED6F800C07568B44508BF4FF0000C92
:10375000BCF1000F0DD1C4E900652C6074601CE061
:10376000FFF77CFF013645F10005361845EBE070A8
:10377000E4E7DCE90420D4E90431934271EB000E64
:103780001ADAD21ADCF8043060EB0100CCE904202C
:10379000C4E900C31C60CCF804403368B34206D0CF
:1037A0009C4204D1FFF764FF0021FEF745FD87F33B
:1037B0001188BFF36F8FF8BD9B1A61EB0001AC4518
:1037C000C4E90431C7D0DCF800C0C1E7D80100214A
:1037D0008C0000212DE9F84F4FF02003EFF3118CFE
:1037E00083F31288BFF36F8FDFF8B0A0DFF8B090DB
:1037F0000024C9F80000DAF800000025504508BF91
:103800000020284FE046D7E90021D9F8003080B3E6
:10381000D0E9046C4FEAE37EB3427EEB0C0B05DA91
:10382000F61A6CEB0E04C0E9046422E0B21841EB16
:10383000E671C0E90445C7E90021FFF739FF88F3C5
:103840001188BFF36F8F836898474FF02003EFF321
:10385000118883F31288BFF36F8FD9F80030DAF83C
:1038600000009B1B5045C446C9F80030CAD1D7E9B7
:10387000002100249A1841EBE373C7E90023C9F83B
:103880000040FFF7F5FE2146FEF7D6FC88F31188CD
:10389000BFF36F8FBDE8F84FFFF7DCBC8C00002151
:1038A000CC020021D801002110B54FF02003EFF326
:1038B000118483F31288BFF36F8FFFF7CFFE0346A7
:1038C000054AD2E90001181841EBE37184F311882D
:1038D000BFF36F8F10BD00BFD8010021014800F079
:1038E00005B800BF72440001002070470FB407B54F
:1038F00004A951F8040B0191FCF7A2FE03B05DF896
:1039000004EB04B07047044608B5084611461A4651
:10391000A047FFF723FEFDF787FE038B13F0070395
:1039200005D10368002B0CBF002003207047022B39
:1039300005D1408BB0FA80F0400980007047012B20
:1039400005D10368002B0CBF002005207047002024
:10395000704710B50C4600B111B96FF0150010BDDD
:10396000081D00F095F80028F9D1A368032BF6D9BB
:10397000F3E72DE9F0410D4607461946281D90460C
:103980001E4600F096F8044638B1334642462946B2
:103990003846A446BDE8F0416047BDE8F08110B468
:1039A0004FF02004EFF3118284F31288BFF36F8F7E
:1039B000416110BC0121FCF751BE38B50C460546EB
:1039C00058B151B10B6843B14B6833B11C2200218F
:1039D00000F030F900202C6138BD6FF01500FBE7D6
:1039E00070B505460E46FFF7B4FF041E15DB4FF019
:1039F0002003EFF3118283F31288BFF36F8F4FF62A
:103A0000FF716B8B2C8B8B4204F0070407D182F380
:103A10001188BFF36F8F6FF00A04204670BD022C2F
:103A20000CD101336B8382F31188BFF36F8F0023B6
:103A3000224631462846FFF79CFFEEE7062C14D8B5
:103A4000DFE804F004131313041A040000233360A6
:103A50006B683BB9C5E90066ACB902212846FCF7A2
:103A6000FDFDDAE71E606E60F6E782F31188BFF3B2
:103A70006F8F6FF00404D0E782F31188BFF36F8F6C
:103A80006FF08504C9E782F31188BFF36F8FC4E735
:103A9000034658B1426802F00302012A03D0032A08
:103AA00004D1026812B10020986070476FF01500D1
:103AB00070474268034602F00302032A4FF00002F7
:103AC000816014BF104600685A6070472DE9F84FB6
:103AD0009A46D37880466F2B0F461546A3F1410BCB
:103AE00029D024D8582B0CBF10260A26DDF82890A0
:103AF0003246002340463946FCF7DEFA092AD4B2A2
:103B00001ED83034B045E4B277F1000709F8014D12
:103B100001D3D14511D82B789B0605D5082E15D198
:103B2000AB7843F00803AB704846BDE8F88F03F06C
:103B3000F703702BD7E70826D8E780460F46D7E76C
:103B4000BBF1190F94BF37345734DBE7102EEBD19C
:103B5000AB7843F01003E6E72DE9F04107468846CD
:103B600015461E461446B44205D30EB1601B08E04C
:103B70002378002BFAD0414614F8010BB8470028EF
:103B8000F1DABDE8F081704700F0B4B90146006891
:103B900000F0B0B900210120FFF7F6BF08B5FDF72E
:103BA000DFFABDE80840FDF78FBB436E83F30B8857
:103BB000704740E800F313F4803FD8B208BF6FF0BD
:103BC000150070477FB50A894E890B684D6802F071
:103BD0001F0242EA461200938DF8082023F01F03CB
:103BE0006A1E134423F01F030728039304D8694671
:103BF000FDF74CFD04B070BD6FF01500FAE7034609
:103C000000201A5C02B970470130FAE70346002031
:103C10001A5C0AB1884200D170470130F8E710B54C
:103C2000431E0A44914200D110BD11F8014B03F824
:103C3000014FF7E70346C9B20244934200D17047EF
:103C400003F8011BF9E70C220369C9B201FB023337
:103C5000186C00F0070070474FF02003EFF311825B
:103C600083F31288BFF36F8F036803F0C00343F040
:103C70000203036082F31188BFF36F8F704770B542
:103C8000C9B203694FF02004EFF3118584F3128861
:103C9000BFF36F8F0C2606FB0134246C14F0C004B4
:103CA00008D0A24206D085F31188BFF36F8F4FF082
:103CB000FF3070BD012206FB01331A6485F31188C1
:103CC000BFF36F8F436803EBC1035B689847002025
:103CD000EFE78022FFF7D3BFF8B5069F0469C9B2AA
:103CE0004FF02005EFF3118685F31288BFF36F8F35
:103CF0000C2505FB0144256C05F0070CBCF1010FF8
:103D00000CD1276486F31188BFF36F8FC4E90E23AB
:103D1000436853F8313098470020F8BD05F0C005DE
:103D2000AF4286F31188BFF36F8F0CBF6FF077003F
:103D30004FF0FF30F1E713B580240094FFF7CCFF7C
:103D400002B010BD10B41C240069CBB203FB040008
:103D5000002110BC10470020FEF7C6BB002000F079
:103D600063B81046FFF71CB9436800205B681B6905
:103D70000B607047436802EA01005B6821EA0201B8
:103D800098600020D9607047436800205B689960A4
:103D90007047436800205B68D960704743685A6881
:103DA000536821EA03000B4090600020D360704705
:103DB00010B503695868F8B1884219D19C68086841
:103DC000A142586000D19860002008602AB15A686A
:103DD0000A609A68596002B99960002010E0814237
:103DE00006D10868206098688142EDD19C60EBE7BD
:103DF000044600680028F2D1002AE8D16FF01500CF
:103E000010BD002200F150039B009BB203F18243DE
:103E100003F5B0331A601B68704708B5FEF7B2F8B7
:103E200008BD004700F053B9FEF7E2BAF7B51646F1
:103E3000DDE90847019001A81D46FEF7C9FB019B7B
:103E4000B6F1000C18BF4FF0010C00EB83000B1E05
:103E500018BF0123002D43EA4C0314BF4FF00C0C94
:103E60004FF0000C002C43EA0C0314BF4FF4706CAD
:103E70004FF0000C002F43EA0C0314BF4FF4403CFA
:103E80004FF0000CD0F8002243EA0C0322EA0303AF
:103E900001B109780EB13678760019430DB12D784D
:103EA000AD0031430CB12478240229430FB13F788F
:103EB0003F040C433C43C0F8004203B0F0BD1FB5C3
:103EC0000DF10F03019300238DF80F101A461946C8
:103ED0000093FFF7ABFF05B05DF804FB4FF0200245
:103EE000EFF3118382F31288BFF36F8FFEE708B5FB
:103EF000FFF7F4FFF8B505460E464FF02003EFF349
:103F0000118783F31288BFF36F8FFFF727FB3146CA
:103F100004462846FFF7EBFF87F31188BFF36F8F46
:103F20002046BDE8F840FDF77FBBFFF783BEFFF7F3
:103F300076BEEFF30580003818BF0120704708B542
:103F40004FF02002EFF3118382F31288BFF36F8FDB
:103F5000FDF79EF8F4E7D0E9003213605A600023C1
:103F6000C0E90033704708B5FFF7F5FF437B23F046
:103F7000020343730023836008BD38B504460D4631
:103F8000FFF738F9637B43F002036373E5B1A56083
:103F90002B689D4209D16B68C4E900531C606C60BA
:103FA00012E06A689342F6D01B68002BF3D094F9B4
:103FB0000E2093F90E108A42F3D09142F1DD5A6837
:103FC000C4E9003214605C6038BD10B54FF02003C6
:103FD000EFF3118483F31288BFF36F8FFFF7D6F8E6
:103FE00084F31188BFF36F8F10BD38B504464FF0CE
:103FF0002003EFF3118583F31288BFF36F8F437BA8
:1040000013F0280F0BD183680BB1FFF7ACFF637B74
:1040100051B903F0FB0320466373FFF7B7F885F34C
:104020001188BFF36F8F38BD03F0EB03F3E7012175
:104030001838FFF7DABF38B54FF02003EFF31185DA
:1040400083F31288BFF36F8F0468A0420DD034B1A0
:104050002046FFF788FF04F1180000F01EF885F3F2
:104060001188BFF36F8F204638BD0024F7E7034661
:1040700020B9EFF305820AB9FDF78CB883F31188F4
:10408000BFF36F8F70474FF02003EFF3118083F37E
:104090001288BFF36F8FFFF7EABF10B54FF0200211
:1040A000EFF3118482F31288BFF36F8F03683BB183
:1040B000FFF7FEFA002084F31188BFF36F8F10BD65
:1040C0006FF01500F7E708B5FFF7EEFB08BD08B184
:1040D000FCF7CCBF704770477047000010C0FF7FEF
:1040E00001000000DD0F000100000000C519000103
:1040F0000C410001091D000124410001091D0001BE
:104100003C410001DD2000010000000012440001DC
:10411000584300016843000194000021200200215F
:10412000504200012F44000184430001A4430001D8
:1041300096000021740200214A4200013D44000122
:1041400094430001A4430001980000218002002153
:104150004442000100000000953B00010000000007
:10416000953B000100000000953B000100000000AD
:10417000953B000100000000953B0001692500010E
:10418000233E000100000000953B000100000000FC
:10419000953B000100000000953B0001000000007D
:1041A000953B0001F92A0001233E000100000000B8
:1041B000953B000100000000953B0001000000005D
:1041C000953B000100000000953B0001000000004D
:1041D000953B000100000000953B0001000000003D
:1041E0000104000100000000953B000100000000F8
:1041F000953B000100000000953B0001000000001D
:10420000953B000100000000692100010000000052
:10421000953B000100000000953B000100000000FC
:10422000953B000100000000953B000100000000EC
:10423000953B000100000000953B000100000000DC
:10424000953B000100800080FF7F00800080FF7FA1
:1042500000800080FF7FFFFF53440001000000004A
:104260005E44000100000000E44300010000000083
:104270002144000100000000FF4300010000000095
:104280006F44000100000000FB430001000000003B
:104290000338FDD870470000100000000000000047
:1042A00020000000000000004000000000000000AE
:1042B000800000000000000000000002000000007C
:1042C00000000004000000000000000001000000E9
:1042D00000000000000400000000000000080000D2
:1042E000000000000010000000000000002000009E
:1042F00000000000004000000000000000800000FE
:1043000000000008000000000000000004000000A1
:104310000000000008000000000000210000000074
:1043200006000100020000002C4300010000000113
:104330000344000106000000E0FF0301000000212B
:104340000B44000121000000E0FF00218119000161
:1043500051190001000000006D1A0001051B000149
:10436000573D00015D3D0001D11A0001D33C000121
:10437000373D000100000000473C00010000000044
:1043800000000000FFFF000000088C41000000005A
:1043900001000000FFFFFFFF00058C41000000004E
:1043A000000000008D1D0001693D0001753D000108
:1043B000893D0001933D00019D3D0001311C00013C
:1043C000B13D000100000000F5FFFFFFE4400001E7
:1043D000E4400001044100010C4100010C410001D6
:1043E0000C41000163627072696E74665F70616394
:1043F0006B61676500286E696C2900736F63006DDF
:10440000707500464C4153485F30005352414D5F38
:104410003000636C6F636B40343130303530303096
:1044200000636C6F636B5F636F6E74726F6C0067B9
:1044300070696F40343138633038303000677069EC
:104440006F403431386330353030000000000101F6
:104450000000004E5246585F434C4F434B004E52B3
:1044600046585F4750494F5445006D61696E006F73
:1044700073002A2A2A20426F6F74696E67205A657A
:1044800070687972204F53206275696C642066668B
:1044900031626138323638323564202A2A2A0A00DD
:1044A000A5A5A5A55000000003000000E938000103
:1044B00000000000000000000000000000000000FC
:1044C00000000000000000000000000000000000EC
:1044D00000000000000000000000000000000000DC
:1044E00000000000000000000000000000000000CC
:1044F00000000000000000000000000000000000BC
:1045000000000000000000000000000000000000AB
:10451000000000000000000000000000000000009B
:10452000FF00000000000000000000008C000021DF
:0E4530008C00002100000000000015E015E0E6
:00000001FF
